{
  "contractName": "Election",
  "abi": [
    {
      "constant": true,
      "inputs": [
        {
          "name": "",
          "type": "uint256"
        }
      ],
      "name": "candidates",
      "outputs": [
        {
          "name": "name",
          "type": "string"
        },
        {
          "name": "party",
          "type": "string"
        },
        {
          "name": "noOfVotes",
          "type": "uint256"
        },
        {
          "name": "exists",
          "type": "bool"
        }
      ],
      "payable": false,
      "stateMutability": "view",
      "type": "function",
      "signature": "0x3477ee2e"
    },
    {
      "constant": true,
      "inputs": [],
      "name": "candidateCount",
      "outputs": [
        {
          "name": "",
          "type": "uint256"
        }
      ],
      "payable": false,
      "stateMutability": "view",
      "type": "function",
      "signature": "0xa9a981a3"
    },
    {
      "inputs": [],
      "payable": false,
      "stateMutability": "nonpayable",
      "type": "constructor",
      "signature": "constructor"
    },
    {
      "anonymous": false,
      "inputs": [
        {
          "indexed": false,
          "name": "name",
          "type": "string"
        },
        {
          "indexed": false,
          "name": "party",
          "type": "string"
        }
      ],
      "name": "CandidateCreated",
      "type": "event",
      "signature": "0x2e54601340a570f400320f889c40c79d337a860379cf63e97d44c6386230b341"
    },
    {
      "constant": false,
      "inputs": [
        {
          "name": "_name",
          "type": "string"
        },
        {
          "name": "_party",
          "type": "string"
        }
      ],
      "name": "registerCandidate",
      "outputs": [
        {
          "name": "",
          "type": "uint256"
        }
      ],
      "payable": false,
      "stateMutability": "nonpayable",
      "type": "function",
      "signature": "0x0dbce4dd"
    }
  ],
  "bytecode": "0x6080604052600060025534801561001557600080fd5b50336000806101000a81548173ffffffffffffffffffffffffffffffffffffffff021916908373ffffffffffffffffffffffffffffffffffffffff160217905550610b08806100656000396000f3fe608060405260043610610057576000357c0100000000000000000000000000000000000000000000000000000000900463ffffffff1680630dbce4dd1461005c5780633477ee2e14610099578063a9a981a3146100d9575b600080fd5b34801561006857600080fd5b50610083600480360361007e919081019061072e565b610104565b60405161009091906109d1565b60405180910390f35b3480156100a557600080fd5b506100c060048036036100bb919081019061079a565b6102d4565b6040516100d0949392919061093e565b60405180910390f35b3480156100e557600080fd5b506100ee610441565b6040516100fb91906109d1565b60405180910390f35b60008060009054906101000a900473ffffffffffffffffffffffffffffffffffffffff1673ffffffffffffffffffffffffffffffffffffffff163373ffffffffffffffffffffffffffffffffffffffff16141515610197576040517f08c379a000000000000000000000000000000000000000000000000000000000815260040161018e906109b1565b60405180910390fd5b6101a082610447565b15156101e1576040517f08c379a00000000000000000000000000000000000000000000000000000000081526004016101d890610991565b60405180910390fd5b6002600081548092919060010191905055506080604051908101604052808481526020018381526020016000815260200160011515815250600160006002548152602001908152602001600020600082015181600001908051906020019061024a92919061061f565b50602082015181600101908051906020019061026792919061061f565b506040820151816002015560608201518160030160006101000a81548160ff0219169083151502179055509050507f2e54601340a570f400320f889c40c79d337a860379cf63e97d44c6386230b34183836040516102c6929190610907565b60405180910390a192915050565b6001602052806000526040600020600091509050806000018054600181600116156101000203166002900480601f0160208091040260200160405190810160405280929190818152602001828054600181600116156101000203166002900480156103805780601f1061035557610100808354040283529160200191610380565b820191906000526020600020905b81548152906001019060200180831161036357829003601f168201915b505050505090806001018054600181600116156101000203166002900480601f01602080910402602001604051908101604052809291908181526020018280546001816001161561010002031660029004801561041e5780601f106103f35761010080835404028352916020019161041e565b820191906000526020600020905b81548152906001019060200180831161040157829003601f168201915b5050505050908060020154908060030160009054906101000a900460ff16905084565b60025481565b600080600190505b60025481111515610614576060600160008381526020019081526020016000206001018054600181600116156101000203166002900480601f0160208091040260200160405190810160405280929190818152602001828054600181600116156101000203166002900480156105065780601f106104db57610100808354040283529160200191610506565b820191906000526020600020905b8154815290600101906020018083116104e957829003601f168201915b50505050509050836040516020018082805190602001908083835b6020831015156105465780518252602082019150602081019050602083039250610521565b6001836020036101000a03801982511681845116808217855250505050505090500191505060405160208183030381529060405280519060200120816040516020018082805190602001908083835b6020831015156105ba5780518252602082019150602081019050602083039250610595565b6001836020036101000a0380198251168184511680821785525050505050509050019150506040516020818303038152906040528051906020012014156106065760009250505061061a565b50808060010191505061044f565b50600190505b919050565b828054600181600116156101000203166002900490600052602060002090601f016020900481019282601f1061066057805160ff191683800117855561068e565b8280016001018555821561068e579182015b8281111561068d578251825591602001919060010190610672565b5b50905061069b919061069f565b5090565b6106c191905b808211156106bd5760008160009055506001016106a5565b5090565b90565b600082601f83011215156106d757600080fd5b81356106ea6106e582610a19565b6109ec565b9150808252602083016020830185838301111561070657600080fd5b610711838284610a7b565b50505092915050565b60006107268235610a71565b905092915050565b6000806040838503121561074157600080fd5b600083013567ffffffffffffffff81111561075b57600080fd5b610767858286016106c4565b925050602083013567ffffffffffffffff81111561078457600080fd5b610790858286016106c4565b9150509250929050565b6000602082840312156107ac57600080fd5b60006107ba8482850161071a565b91505092915050565b6107cc81610a5b565b82525050565b60006107dd82610a50565b8084526107f1816020860160208601610a8a565b6107fa81610abd565b602085010191505092915050565b600061081382610a45565b808452610827816020860160208601610a8a565b61083081610abd565b602085010191505092915050565b6000602182527f5468697320506172747920697320616c7265616479207265676973746572656460208301527f2e000000000000000000000000000000000000000000000000000000000000006040830152606082019050919050565b6000603082527f596f7520646f6e7420686176652072696768747320746f20706572666f726d2060208301527f74686973206f7065726174696f6e2021000000000000000000000000000000006040830152606082019050919050565b61090181610a67565b82525050565b6000604082019050818103600083015261092181856107d2565b9050818103602083015261093581846107d2565b90509392505050565b600060808201905081810360008301526109588187610808565b9050818103602083015261096c8186610808565b905061097b60408301856108f8565b61098860608301846107c3565b95945050505050565b600060208201905081810360008301526109aa8161083e565b9050919050565b600060208201905081810360008301526109ca8161089b565b9050919050565b60006020820190506109e660008301846108f8565b92915050565b6000604051905081810181811067ffffffffffffffff82111715610a0f57600080fd5b8060405250919050565b600067ffffffffffffffff821115610a3057600080fd5b601f19601f8301169050602081019050919050565b600081519050919050565b600081519050919050565b60008115159050919050565b6000819050919050565b6000819050919050565b82818337600083830152505050565b60005b83811015610aa8578082015181840152602081019050610a8d565b83811115610ab7576000848401525b50505050565b6000601f19601f830116905091905056fea265627a7a72305820b253c4c5c10a0a6064f45d02208b67ddbffe0a5ebff9789631236014c5d076a96c6578706572696d656e74616cf50037",
  "source": "pragma solidity >=0.4.22 <0.9.0;\r\npragma experimental ABIEncoderV2;\r\n\r\ncontract Election {\r\n    address adminAddress;\r\n    modifier onlyOwner() {\r\n        require(\r\n            msg.sender == adminAddress,\r\n            \"You dont have rights to perform this operation !\"\r\n        );\r\n        _;\r\n    }\r\n\r\n    struct Candidate {\r\n        string name;\r\n        string party;\r\n        uint256 noOfVotes;\r\n        bool exists;\r\n    }\r\n\r\n    mapping(uint256 => Candidate) public candidates;\r\n    uint256 public candidateCount = 0;\r\n\r\n    constructor() public {\r\n        adminAddress = msg.sender;\r\n    }\r\n\r\n    function registerCandidate(string memory _name, string memory _party)\r\n        public\r\n        onlyOwner\r\n        returns (uint256)\r\n    {\r\n        require(checkIfPartyExist(_party), \"This Party is already registered.\");\r\n        candidateCount++;\r\n        candidates[candidateCount] = Candidate(_name, _party, 0, true);\r\n        emit CandidateCreated(_name, _party);\r\n    }\r\n\r\n    function checkIfPartyExist(string memory _inputParty)\r\n        private\r\n        returns (bool)\r\n    {\r\n        for (uint256 i = 1; i <= candidateCount; i++) {\r\n            string memory partyName = candidates[i].party;\r\n            if (\r\n                keccak256(abi.encodePacked(partyName)) ==\r\n                keccak256(abi.encodePacked(_inputParty))\r\n            ) {\r\n                return false;\r\n                break;\r\n            }\r\n        }\r\n        return true;\r\n    }\r\n\r\n    event CandidateCreated(string name, string party);\r\n}\r\n",
  "sourcePath": "C:/Users/harshad/Desktop/Decentralized-Voting-System-using-Blockchain-Technology/contracts/Election.sol",
  "compiler": {
    "name": "solc",
    "version": "0.5.0+commit.1d4f565a.Emscripten.clang"
  },
  "schemaVersion": "3.0.1",
  "updatedAt": "2022-02-25T11:26:13.510Z",
  "devdoc": {
    "methods": {}
  },
  "userdoc": {
    "methods": {}
  }
}