{
  "contractName": "Election",
  "abi": [
    {
      "constant": true,
      "inputs": [],
      "name": "voterCount",
      "outputs": [
        {
          "name": "",
          "type": "uint256"
        }
      ],
      "payable": false,
      "stateMutability": "view",
      "type": "function",
      "signature": "0x42169e48"
    },
    {
      "constant": true,
      "inputs": [
        {
          "name": "",
          "type": "uint256"
        }
      ],
      "name": "voters",
      "outputs": [
        {
          "name": "name",
          "type": "string"
        },
        {
          "name": "voterId",
          "type": "uint256"
        },
        {
          "name": "accountAddress",
          "type": "address"
        },
        {
          "name": "authorized",
          "type": "bool"
        },
        {
          "name": "voted",
          "type": "bool"
        },
        {
          "name": "exists",
          "type": "bool"
        }
      ],
      "payable": false,
      "stateMutability": "view",
      "type": "function",
      "signature": "0xda58c7d9"
    },
    {
      "inputs": [],
      "payable": false,
      "stateMutability": "nonpayable",
      "type": "constructor",
      "signature": "constructor"
    },
    {
      "anonymous": false,
      "inputs": [
        {
          "indexed": false,
          "name": "name",
          "type": "string"
        },
        {
          "indexed": false,
          "name": "voterId",
          "type": "uint256"
        },
        {
          "indexed": false,
          "name": "accountAddress",
          "type": "address"
        }
      ],
      "name": "voterCreated",
      "type": "event",
      "signature": "0x3062e7b99af11ccf359faa3ebe09f96a05aadf26a6d11c2fd8b6e52748473f84"
    },
    {
      "constant": false,
      "inputs": [
        {
          "name": "_name",
          "type": "string"
        },
        {
          "name": "_voterId",
          "type": "uint256"
        }
      ],
      "name": "registerVoter",
      "outputs": [
        {
          "name": "",
          "type": "uint256"
        }
      ],
      "payable": false,
      "stateMutability": "nonpayable",
      "type": "function",
      "signature": "0xe661ea5f"
    }
  ],
  "bytecode": "0x6080604052600060025534801561001557600080fd5b50336000806101000a81548173ffffffffffffffffffffffffffffffffffffffff021916908373ffffffffffffffffffffffffffffffffffffffff160217905550610c67806100656000396000f3fe608060405260043610610057576000357c0100000000000000000000000000000000000000000000000000000000900463ffffffff16806342169e481461005c578063da58c7d914610087578063e661ea5f146100c9575b600080fd5b34801561006857600080fd5b50610071610106565b60405161007e9190610afe565b60405180910390f35b34801561009357600080fd5b506100ae60048036036100a9919081019061081f565b61010c565b6040516100c096959493929190610a36565b60405180910390f35b3480156100d557600080fd5b506100f060048036036100eb91908101906107cb565b610227565b6040516100fd9190610afe565b60405180910390f35b60025481565b6001602052806000526040600020600091509050806000018054600181600116156101000203166002900480601f0160208091040260200160405190810160405280929190818152602001828054600181600116156101000203166002900480156101b85780601f1061018d576101008083540402835291602001916101b8565b820191906000526020600020905b81548152906001019060200180831161019b57829003601f168201915b5050505050908060010154908060020160009054906101000a900473ffffffffffffffffffffffffffffffffffffffff16908060020160149054906101000a900460ff16908060020160159054906101000a900460ff16908060020160169054906101000a900460ff16905086565b6000803390508073ffffffffffffffffffffffffffffffffffffffff166000809054906101000a900473ffffffffffffffffffffffffffffffffffffffff1673ffffffffffffffffffffffffffffffffffffffff16141515156102bf576040517f08c379a00000000000000000000000000000000000000000000000000000000081526004016102b690610abe565b60405180910390fd5b6102c8816104da565b1515610309576040517f08c379a000000000000000000000000000000000000000000000000000000000815260040161030090610a9e565b60405180910390fd5b61031283610616565b1515610353576040517f08c379a000000000000000000000000000000000000000000000000000000000815260040161034a90610ade565b60405180910390fd5b60026000815480929190600101919050555060c0604051908101604052808581526020018481526020018273ffffffffffffffffffffffffffffffffffffffff1681526020016000151581526020016000151581526020016001151581525060016000600254815260200190815260200160002060008201518160000190805190602001906103e39291906106bc565b506020820151816001015560408201518160020160006101000a81548173ffffffffffffffffffffffffffffffffffffffff021916908373ffffffffffffffffffffffffffffffffffffffff16021790555060608201518160020160146101000a81548160ff02191690831515021790555060808201518160020160156101000a81548160ff02191690831515021790555060a08201518160020160166101000a81548160ff0219169083151502179055509050507f3062e7b99af11ccf359faa3ebe09f96a05aadf26a6d11c2fd8b6e52748473f848484836040516104cb939291906109f8565b60405180910390a15092915050565b600080600190505b6002548111151561060b5760006001600083815260200190815260200160002060020160009054906101000a900473ffffffffffffffffffffffffffffffffffffffff16905083604051602001808273ffffffffffffffffffffffffffffffffffffffff1673ffffffffffffffffffffffffffffffffffffffff166c010000000000000000000000000281526014019150506040516020818303038152906040528051906020012081604051602001808273ffffffffffffffffffffffffffffffffffffffff1673ffffffffffffffffffffffffffffffffffffffff166c010000000000000000000000000281526014019150506040516020818303038152906040528051906020012014156105fd57600092505050610611565b5080806001019150506104e2565b50600190505b919050565b600080600190505b600254811115156106b15760006001600083815260200190815260200160002060010154905083604051602001808281526020019150506040516020818303038152906040528051906020012081604051602001808281526020019150506040516020818303038152906040528051906020012014156106a3576000925050506106b7565b50808060010191505061061e565b50600190505b919050565b828054600181600116156101000203166002900490600052602060002090601f016020900481019282601f106106fd57805160ff191683800117855561072b565b8280016001018555821561072b579182015b8281111561072a57825182559160200191906001019061070f565b5b509050610738919061073c565b5090565b61075e91905b8082111561075a576000816000905550600101610742565b5090565b90565b600082601f830112151561077457600080fd5b813561078761078282610b46565b610b19565b915080825260208301602083018583830111156107a357600080fd5b6107ae838284610bda565b50505092915050565b60006107c38235610bd0565b905092915050565b600080604083850312156107de57600080fd5b600083013567ffffffffffffffff8111156107f857600080fd5b61080485828601610761565b9250506020610815858286016107b7565b9150509250929050565b60006020828403121561083157600080fd5b600061083f848285016107b7565b91505092915050565b61085181610b88565b82525050565b61086081610b9a565b82525050565b600061087182610b7d565b808452610885816020860160208601610be9565b61088e81610c1c565b602085010191505092915050565b60006108a782610b72565b8084526108bb816020860160208601610be9565b6108c481610c1c565b602085010191505092915050565b6000602a82527f54686973204163636f756e74204164647265737320697320616c72656164792060208301527f72656769737465726564000000000000000000000000000000000000000000006040830152606082019050919050565b6000602982527f596f752063616e6e6f7420757365206f776e6572206164647265737320746f2060208301527f72656769737465722e00000000000000000000000000000000000000000000006040830152606082019050919050565b6000602482527f5468697320566f74657220496420697320616c7265616479207265676973746560208301527f7265642e000000000000000000000000000000000000000000000000000000006040830152606082019050919050565b6109f281610bc6565b82525050565b60006060820190508181036000830152610a128186610866565b9050610a2160208301856109e9565b610a2e6040830184610848565b949350505050565b600060c0820190508181036000830152610a50818961089c565b9050610a5f60208301886109e9565b610a6c6040830187610848565b610a796060830186610857565b610a866080830185610857565b610a9360a0830184610857565b979650505050505050565b60006020820190508181036000830152610ab7816108d2565b9050919050565b60006020820190508181036000830152610ad78161092f565b9050919050565b60006020820190508181036000830152610af78161098c565b9050919050565b6000602082019050610b1360008301846109e9565b92915050565b6000604051905081810181811067ffffffffffffffff82111715610b3c57600080fd5b8060405250919050565b600067ffffffffffffffff821115610b5d57600080fd5b601f19601f8301169050602081019050919050565b600081519050919050565b600081519050919050565b6000610b9382610ba6565b9050919050565b60008115159050919050565b600073ffffffffffffffffffffffffffffffffffffffff82169050919050565b6000819050919050565b6000819050919050565b82818337600083830152505050565b60005b83811015610c07578082015181840152602081019050610bec565b83811115610c16576000848401525b50505050565b6000601f19601f830116905091905056fea265627a7a72305820fc047d87a2041a6b6c0436b663dc5a321f189f9c13ef86b28f68bae2c1b7b6d16c6578706572696d656e74616cf50037",
  "source": "pragma solidity >=0.4.22 <0.9.0;\r\npragma experimental ABIEncoderV2;\r\n\r\ncontract Election {\r\n    address adminAddress;\r\n    modifier onlyOwner() {\r\n        require(\r\n            msg.sender == adminAddress,\r\n            \"You don't have rights to perform this operation !\"\r\n        );\r\n        _;\r\n    }\r\n\r\n    struct Voter {\r\n        string name;\r\n        uint256 voterId;\r\n        address accountAddress;\r\n        bool authorized;\r\n        bool voted;\r\n        bool exists;\r\n    }\r\n\r\n    mapping(uint256 => Voter) public voters;\r\n    uint256 public voterCount = 0;\r\n\r\n    constructor() public {\r\n        adminAddress = msg.sender;\r\n    }\r\n\r\n    function registerVoter(string memory _name, uint256 _voterId)\r\n        public\r\n        returns (uint256)\r\n    {\r\n        address _accountAddress = msg.sender;\r\n        require(\r\n            adminAddress != _accountAddress,\r\n            \"You cannot use owner address to register.\"\r\n        );\r\n        require(\r\n            checkIfAddressExist(_accountAddress),\r\n            \"This Account Address is already registered\"\r\n        );\r\n        require(\r\n            checkIfVoterIdExist(_voterId),\r\n            \"This Voter Id is already registered.\"\r\n        );\r\n        voterCount++;\r\n        voters[voterCount] = Voter(\r\n            _name,\r\n            _voterId,\r\n            _accountAddress,\r\n            false,\r\n            false,\r\n            true\r\n        );\r\n        emit voterCreated(_name, _voterId, _accountAddress);\r\n    }\r\n\r\n    function checkIfVoterIdExist(uint256 _inputVoterId) private returns (bool) {\r\n        for (uint256 i = 1; i <= voterCount; i++) {\r\n            uint256 idVoter = voters[i].voterId;\r\n            if (\r\n                keccak256(abi.encodePacked(idVoter)) ==\r\n                keccak256(abi.encodePacked(_inputVoterId))\r\n            ) {\r\n                return false;\r\n                break;\r\n            }\r\n        }\r\n        return true;\r\n    }\r\n\r\n    function checkIfAddressExist(address _inputAccountAddress)\r\n        private\r\n        returns (bool)\r\n    {\r\n        for (uint256 i = 1; i <= voterCount; i++) {\r\n            address addressAccount = voters[i].accountAddress;\r\n            if (\r\n                keccak256(abi.encodePacked(addressAccount)) ==\r\n                keccak256(abi.encodePacked(_inputAccountAddress))\r\n            ) {\r\n                return false;\r\n                break;\r\n            }\r\n        }\r\n        return true;\r\n    }\r\n\r\n    event voterCreated(string name, uint256 voterId, address accountAddress);\r\n}\r\n",
  "sourcePath": "C:/Users/harshad/Desktop/Decentralized-Voting-System-using-Blockchain-Technology/contracts/Election.sol",
  "compiler": {
    "name": "solc",
    "version": "0.5.0+commit.1d4f565a.Emscripten.clang"
  },
  "schemaVersion": "3.0.1",
  "updatedAt": "2022-02-24T15:40:52.483Z",
  "devdoc": {
    "methods": {}
  },
  "userdoc": {
    "methods": {}
  }
}