{
  "contractName": "Election",
  "abi": [
    {
      "constant": true,
      "inputs": [
        {
          "name": "",
          "type": "uint256"
        }
      ],
      "name": "candidates",
      "outputs": [
        {
          "name": "name",
          "type": "string"
        },
        {
          "name": "party",
          "type": "string"
        },
        {
          "name": "noOfVotes",
          "type": "uint256"
        },
        {
          "name": "exists",
          "type": "bool"
        }
      ],
      "payable": false,
      "stateMutability": "view",
      "type": "function",
      "signature": "0x3477ee2e"
    },
    {
      "constant": true,
      "inputs": [],
      "name": "voterCount",
      "outputs": [
        {
          "name": "",
          "type": "uint256"
        }
      ],
      "payable": false,
      "stateMutability": "view",
      "type": "function",
      "signature": "0x42169e48"
    },
    {
      "constant": true,
      "inputs": [],
      "name": "candidateCount",
      "outputs": [
        {
          "name": "",
          "type": "uint256"
        }
      ],
      "payable": false,
      "stateMutability": "view",
      "type": "function",
      "signature": "0xa9a981a3"
    },
    {
      "constant": true,
      "inputs": [
        {
          "name": "",
          "type": "uint256"
        }
      ],
      "name": "voters",
      "outputs": [
        {
          "name": "name",
          "type": "string"
        },
        {
          "name": "voterId",
          "type": "uint256"
        },
        {
          "name": "accountAddress",
          "type": "address"
        },
        {
          "name": "authorized",
          "type": "bool"
        },
        {
          "name": "voted",
          "type": "bool"
        },
        {
          "name": "exists",
          "type": "bool"
        }
      ],
      "payable": false,
      "stateMutability": "view",
      "type": "function",
      "signature": "0xda58c7d9"
    },
    {
      "inputs": [],
      "payable": false,
      "stateMutability": "nonpayable",
      "type": "constructor",
      "signature": "constructor"
    },
    {
      "anonymous": false,
      "inputs": [
        {
          "indexed": false,
          "name": "name",
          "type": "string"
        },
        {
          "indexed": false,
          "name": "voterId",
          "type": "uint256"
        },
        {
          "indexed": false,
          "name": "accountAddress",
          "type": "address"
        }
      ],
      "name": "voterCreated",
      "type": "event",
      "signature": "0x3062e7b99af11ccf359faa3ebe09f96a05aadf26a6d11c2fd8b6e52748473f84"
    },
    {
      "anonymous": false,
      "inputs": [
        {
          "indexed": false,
          "name": "name",
          "type": "string"
        },
        {
          "indexed": false,
          "name": "party",
          "type": "string"
        }
      ],
      "name": "candidateCreated",
      "type": "event",
      "signature": "0x01762d564a18a29c4f01927d95b81f865e4b90a13bc626b267f513ea77f619e5"
    },
    {
      "anonymous": false,
      "inputs": [
        {
          "indexed": false,
          "name": "voterId",
          "type": "uint256"
        },
        {
          "indexed": false,
          "name": "candidateId",
          "type": "uint256"
        }
      ],
      "name": "voterVoted",
      "type": "event",
      "signature": "0x7d9c7189445169d0d0076ad7307755f993fcadd43f238e2b9e75fb22de24d95b"
    },
    {
      "constant": true,
      "inputs": [],
      "name": "isAdmin",
      "outputs": [
        {
          "name": "",
          "type": "bool"
        }
      ],
      "payable": false,
      "stateMutability": "view",
      "type": "function",
      "signature": "0xb6db75a0"
    },
    {
      "constant": false,
      "inputs": [
        {
          "name": "_name",
          "type": "string"
        },
        {
          "name": "_voterId",
          "type": "uint256"
        }
      ],
      "name": "registerVoter",
      "outputs": [
        {
          "name": "",
          "type": "uint256"
        }
      ],
      "payable": false,
      "stateMutability": "nonpayable",
      "type": "function",
      "signature": "0xe661ea5f"
    },
    {
      "constant": false,
      "inputs": [
        {
          "name": "_name",
          "type": "string"
        },
        {
          "name": "_party",
          "type": "string"
        }
      ],
      "name": "registerCandidate",
      "outputs": [
        {
          "name": "",
          "type": "uint256"
        }
      ],
      "payable": false,
      "stateMutability": "nonpayable",
      "type": "function",
      "signature": "0x0dbce4dd"
    },
    {
      "constant": false,
      "inputs": [
        {
          "name": "_voterId",
          "type": "uint256"
        },
        {
          "name": "_candidateId",
          "type": "uint256"
        }
      ],
      "name": "vote",
      "outputs": [],
      "payable": false,
      "stateMutability": "nonpayable",
      "type": "function",
      "signature": "0xb384abef"
    }
  ],
  "bytecode": "0x60806040526000600255600060045534801561001a57600080fd5b50336000806101000a81548173ffffffffffffffffffffffffffffffffffffffff021916908373ffffffffffffffffffffffffffffffffffffffff1602179055506119ec8061006a6000396000f3fe60806040526004361061008e576000357c0100000000000000000000000000000000000000000000000000000000900463ffffffff1680630dbce4dd146100935780633477ee2e146100d057806342169e4814610110578063a9a981a31461013b578063b384abef14610166578063b6db75a01461018f578063da58c7d9146101ba578063e661ea5f146101fc575b600080fd5b34801561009f57600080fd5b506100ba60048036036100b5919081019061115e565b610239565b6040516100c7919061185a565b60405180910390f35b3480156100dc57600080fd5b506100f760048036036100f2919081019061121e565b610409565b604051610107949392919061167f565b60405180910390f35b34801561011c57600080fd5b50610125610576565b604051610132919061185a565b60405180910390f35b34801561014757600080fd5b5061015061057c565b60405161015d919061185a565b60405180910390f35b34801561017257600080fd5b5061018d60048036036101889190810190611247565b610582565b005b34801561019b57600080fd5b506101a46107cb565b6040516101b191906115ef565b60405180910390f35b3480156101c657600080fd5b506101e160048036036101dc919081019061121e565b610822565b6040516101f3969594939291906116d2565b60405180910390f35b34801561020857600080fd5b50610223600480360361021e91908101906111ca565b61093d565b604051610230919061185a565b60405180910390f35b60008060009054906101000a900473ffffffffffffffffffffffffffffffffffffffff1673ffffffffffffffffffffffffffffffffffffffff163373ffffffffffffffffffffffffffffffffffffffff161415156102cc576040517f08c379a00000000000000000000000000000000000000000000000000000000081526004016102c3906117fa565b60405180910390fd5b6102d582610bf0565b1515610316576040517f08c379a000000000000000000000000000000000000000000000000000000000815260040161030d9061177a565b60405180910390fd5b6004600081548092919060010191905055506080604051908101604052808481526020018381526020016000815260200160011515815250600360006004548152602001908152602001600020600082015181600001908051906020019061037f92919061104f565b50602082015181600101908051906020019061039c92919061104f565b506040820151816002015560608201518160030160006101000a81548160ff0219169083151502179055509050507f01762d564a18a29c4f01927d95b81f865e4b90a13bc626b267f513ea77f619e583836040516103fb92919061160a565b60405180910390a192915050565b6003602052806000526040600020600091509050806000018054600181600116156101000203166002900480601f0160208091040260200160405190810160405280929190818152602001828054600181600116156101000203166002900480156104b55780601f1061048a576101008083540402835291602001916104b5565b820191906000526020600020905b81548152906001019060200180831161049857829003601f168201915b505050505090806001018054600181600116156101000203166002900480601f0160208091040260200160405190810160405280929190818152602001828054600181600116156101000203166002900480156105535780601f1061052857610100808354040283529160200191610553565b820191906000526020600020905b81548152906001019060200180831161053657829003601f168201915b5050505050908060020154908060030160009054906101000a900460ff16905084565b60025481565b60045481565b61058b82610dc8565b1515156105cd576040517f08c379a00000000000000000000000000000000000000000000000000000000081526004016105c4906117ba565b60405180910390fd5b6000811180156105df57506004548111155b1515610620576040517f08c379a00000000000000000000000000000000000000000000000000000000081526004016106179061181a565b60405180910390fd5b600061062b83610e6e565b90503373ffffffffffffffffffffffffffffffffffffffff166001600083815260200190815260200160002060020160009054906101000a900473ffffffffffffffffffffffffffffffffffffffff1673ffffffffffffffffffffffffffffffffffffffff161415156106d3576040517f08c379a00000000000000000000000000000000000000000000000000000000081526004016106ca9061179a565b60405180910390fd5b6001600082815260200190815260200160002060020160159054906101000a900460ff16151515610739576040517f08c379a00000000000000000000000000000000000000000000000000000000081526004016107309061175a565b60405180910390fd5b6003600083815260200190815260200160002060020160008154809291906001019190505550600180600083815260200190815260200160002060020160156101000a81548160ff0219169083151502179055507f7d9c7189445169d0d0076ad7307755f993fcadd43f238e2b9e75fb22de24d95b83836040516107be929190611875565b60405180910390a1505050565b60008060009054906101000a900473ffffffffffffffffffffffffffffffffffffffff1673ffffffffffffffffffffffffffffffffffffffff163373ffffffffffffffffffffffffffffffffffffffff1614905090565b6001602052806000526040600020600091509050806000018054600181600116156101000203166002900480601f0160208091040260200160405190810160405280929190818152602001828054600181600116156101000203166002900480156108ce5780601f106108a3576101008083540402835291602001916108ce565b820191906000526020600020905b8154815290600101906020018083116108b157829003601f168201915b5050505050908060010154908060020160009054906101000a900473ffffffffffffffffffffffffffffffffffffffff16908060020160149054906101000a900460ff16908060020160159054906101000a900460ff16908060020160169054906101000a900460ff16905086565b6000803390506000809054906101000a900473ffffffffffffffffffffffffffffffffffffffff1673ffffffffffffffffffffffffffffffffffffffff168173ffffffffffffffffffffffffffffffffffffffff16141515156109d5576040517f08c379a00000000000000000000000000000000000000000000000000000000081526004016109cc906117da565b60405180910390fd5b6109de81610f13565b1515610a1f576040517f08c379a0000000000000000000000000000000000000000000000000000000008152600401610a169061173a565b60405180910390fd5b610a2883610dc8565b1515610a69576040517f08c379a0000000000000000000000000000000000000000000000000000000008152600401610a609061183a565b60405180910390fd5b60026000815480929190600101919050555060c0604051908101604052808581526020018481526020018273ffffffffffffffffffffffffffffffffffffffff168152602001600015158152602001600015158152602001600115158152506001600060025481526020019081526020016000206000820151816000019080519060200190610af992919061104f565b506020820151816001015560408201518160020160006101000a81548173ffffffffffffffffffffffffffffffffffffffff021916908373ffffffffffffffffffffffffffffffffffffffff16021790555060608201518160020160146101000a81548160ff02191690831515021790555060808201518160020160156101000a81548160ff02191690831515021790555060a08201518160020160166101000a81548160ff0219169083151502179055509050507f3062e7b99af11ccf359faa3ebe09f96a05aadf26a6d11c2fd8b6e52748473f84848483604051610be193929190611641565b60405180910390a15092915050565b600080600190505b60045481111515610dbd576060600360008381526020019081526020016000206001018054600181600116156101000203166002900480601f016020809104026020016040519081016040528092919081815260200182805460018160011615610100020316600290048015610caf5780601f10610c8457610100808354040283529160200191610caf565b820191906000526020600020905b815481529060010190602001808311610c9257829003601f168201915b50505050509050836040516020018082805190602001908083835b602083101515610cef5780518252602082019150602081019050602083039250610cca565b6001836020036101000a03801982511681845116808217855250505050505090500191505060405160208183030381529060405280519060200120816040516020018082805190602001908083835b602083101515610d635780518252602082019150602081019050602083039250610d3e565b6001836020036101000a038019825116818451168082178552505050505050905001915050604051602081830303815290604052805190602001201415610daf57600092505050610dc3565b508080600101915050610bf8565b50600190505b919050565b600080600190505b60025481111515610e63576000600160008381526020019081526020016000206001015490508360405160200180828152602001915050604051602081830303815290604052805190602001208160405160200180828152602001915050604051602081830303815290604052805190602001201415610e5557600092505050610e69565b508080600101915050610dd0565b50600190505b919050565b600080600190505b60025481111515610f08576000600160008381526020019081526020016000206001015490508360405160200180828152602001915050604051602081830303815290604052805190602001208160405160200180828152602001915050604051602081830303815290604052805190602001201415610efa578192505050610f0e565b508080600101915050610e76565b50600090505b919050565b600080600190505b600254811115156110445760006001600083815260200190815260200160002060020160009054906101000a900473ffffffffffffffffffffffffffffffffffffffff16905083604051602001808273ffffffffffffffffffffffffffffffffffffffff1673ffffffffffffffffffffffffffffffffffffffff166c010000000000000000000000000281526014019150506040516020818303038152906040528051906020012081604051602001808273ffffffffffffffffffffffffffffffffffffffff1673ffffffffffffffffffffffffffffffffffffffff166c010000000000000000000000000281526014019150506040516020818303038152906040528051906020012014156110365760009250505061104a565b508080600101915050610f1b565b50600190505b919050565b828054600181600116156101000203166002900490600052602060002090601f016020900481019282601f1061109057805160ff19168380011785556110be565b828001600101855582156110be579182015b828111156110bd5782518255916020019190600101906110a2565b5b5090506110cb91906110cf565b5090565b6110f191905b808211156110ed5760008160009055506001016110d5565b5090565b90565b600082601f830112151561110757600080fd5b813561111a611115826118cb565b61189e565b9150808252602083016020830185838301111561113657600080fd5b61114183828461195f565b50505092915050565b60006111568235611955565b905092915050565b6000806040838503121561117157600080fd5b600083013567ffffffffffffffff81111561118b57600080fd5b611197858286016110f4565b925050602083013567ffffffffffffffff8111156111b457600080fd5b6111c0858286016110f4565b9150509250929050565b600080604083850312156111dd57600080fd5b600083013567ffffffffffffffff8111156111f757600080fd5b611203858286016110f4565b92505060206112148582860161114a565b9150509250929050565b60006020828403121561123057600080fd5b600061123e8482850161114a565b91505092915050565b6000806040838503121561125a57600080fd5b60006112688582860161114a565b92505060206112798582860161114a565b9150509250929050565b61128c8161190d565b82525050565b61129b8161191f565b82525050565b60006112ac82611902565b8084526112c081602086016020860161196e565b6112c9816119a1565b602085010191505092915050565b60006112e2826118f7565b8084526112f681602086016020860161196e565b6112ff816119a1565b602085010191505092915050565b6000602a82527f54686973204163636f756e74204164647265737320697320616c72656164792060208301527f72656769737465726564000000000000000000000000000000000000000000006040830152606082019050919050565b6000601782527f596f75206861766520616c726561647920566f7465642e0000000000000000006020830152604082019050919050565b6000602182527f5468697320506172747920697320616c7265616479207265676973746572656460208301527f2e000000000000000000000000000000000000000000000000000000000000006040830152606082019050919050565b6000602c82527f506c6561736520766f746520776974682072656769737465726564204163636f60208301527f756e7420416464726573732e00000000000000000000000000000000000000006040830152606082019050919050565b6000601f82527f596f7520617265206e6f74207265676973746572656420746f20766f74652e006020830152604082019050919050565b6000602982527f596f752063616e6e6f7420757365206f776e6572206164647265737320746f2060208301527f72656769737465722e00000000000000000000000000000000000000000000006040830152606082019050919050565b6000603082527f596f7520646f6e7420686176652072696768747320746f20706572666f726d2060208301527f74686973206f7065726174696f6e2021000000000000000000000000000000006040830152606082019050919050565b6000601f82527f43616e6469646174652073656c656374696f6e20697320696e76616c69642e006020830152604082019050919050565b6000602482527f5468697320566f74657220496420697320616c7265616479207265676973746560208301527f7265642e000000000000000000000000000000000000000000000000000000006040830152606082019050919050565b6115e98161194b565b82525050565b60006020820190506116046000830184611292565b92915050565b6000604082019050818103600083015261162481856112a1565b9050818103602083015261163881846112a1565b90509392505050565b6000606082019050818103600083015261165b81866112a1565b905061166a60208301856115e0565b6116776040830184611283565b949350505050565b6000608082019050818103600083015261169981876112d7565b905081810360208301526116ad81866112d7565b90506116bc60408301856115e0565b6116c96060830184611292565b95945050505050565b600060c08201905081810360008301526116ec81896112d7565b90506116fb60208301886115e0565b6117086040830187611283565b6117156060830186611292565b6117226080830185611292565b61172f60a0830184611292565b979650505050505050565b600060208201905081810360008301526117538161130d565b9050919050565b600060208201905081810360008301526117738161136a565b9050919050565b60006020820190508181036000830152611793816113a1565b9050919050565b600060208201905081810360008301526117b3816113fe565b9050919050565b600060208201905081810360008301526117d38161145b565b9050919050565b600060208201905081810360008301526117f381611492565b9050919050565b60006020820190508181036000830152611813816114ef565b9050919050565b600060208201905081810360008301526118338161154c565b9050919050565b6000602082019050818103600083015261185381611583565b9050919050565b600060208201905061186f60008301846115e0565b92915050565b600060408201905061188a60008301856115e0565b61189760208301846115e0565b9392505050565b6000604051905081810181811067ffffffffffffffff821117156118c157600080fd5b8060405250919050565b600067ffffffffffffffff8211156118e257600080fd5b601f19601f8301169050602081019050919050565b600081519050919050565b600081519050919050565b60006119188261192b565b9050919050565b60008115159050919050565b600073ffffffffffffffffffffffffffffffffffffffff82169050919050565b6000819050919050565b6000819050919050565b82818337600083830152505050565b60005b8381101561198c578082015181840152602081019050611971565b8381111561199b576000848401525b50505050565b6000601f19601f830116905091905056fea265627a7a72305820f5594f1d5e1eb502521829cbe3cbdfa96c801ff092bef15cc16c76cfd4a262e96c6578706572696d656e74616cf50037",
  "source": "pragma solidity >=0.4.22 <0.9.0;\r\npragma experimental ABIEncoderV2;\r\n\r\ncontract Election {\r\n    address adminAddress;\r\n    modifier onlyOwner() {\r\n        require(\r\n            msg.sender == adminAddress,\r\n            \"You dont have rights to perform this operation !\"\r\n        );\r\n        _;\r\n    }\r\n\r\n    struct Voter {\r\n        string name;\r\n        uint256 voterId;\r\n        address accountAddress;\r\n        bool authorized;\r\n        bool voted;\r\n        bool exists;\r\n    }\r\n\r\n    mapping(uint256 => Voter) public voters;\r\n    uint256 public voterCount = 0;\r\n\r\n    struct Candidate {\r\n        string name;\r\n        string party;\r\n        uint256 noOfVotes;\r\n        bool exists;\r\n    }\r\n\r\n    mapping(uint256 => Candidate) public candidates;\r\n    uint256 public candidateCount = 0;\r\n\r\n    constructor() public {\r\n        adminAddress = msg.sender;\r\n    }\r\n\r\n    function isAdmin() public view returns (bool) {\r\n        return (msg.sender == adminAddress);\r\n    }\r\n\r\n    function registerVoter(string memory _name, uint256 _voterId)\r\n        public\r\n        returns (uint256)\r\n    {\r\n        address _accountAddress = msg.sender;\r\n        require(\r\n            _accountAddress != adminAddress,\r\n            \"You cannot use owner address to register.\"\r\n        );\r\n        require(\r\n            checkIfAddressExist(_accountAddress),\r\n            \"This Account Address is already registered\"\r\n        );\r\n        require(\r\n            checkIfVoterIdExist(_voterId),\r\n            \"This Voter Id is already registered.\"\r\n        );\r\n        voterCount++;\r\n        voters[voterCount] = Voter(\r\n            _name,\r\n            _voterId,\r\n            _accountAddress,\r\n            false,\r\n            false,\r\n            true\r\n        );\r\n        emit voterCreated(_name, _voterId, _accountAddress);\r\n    }\r\n\r\n    function registerCandidate(string memory _name, string memory _party)\r\n        public\r\n        onlyOwner\r\n        returns (uint256)\r\n    {\r\n        require(checkIfPartyExist(_party), \"This Party is already registered.\");\r\n        candidateCount++;\r\n        candidates[candidateCount] = Candidate(_name, _party, 0, true);\r\n        emit candidateCreated(_name, _party);\r\n    }\r\n\r\n    function vote(uint256 _voterId, uint256 _candidateId) public {\r\n        require(\r\n            !checkIfVoterIdExist(_voterId),\r\n            \"You are not registered to vote.\"\r\n        );\r\n        require(\r\n            _candidateId > 0 && _candidateId <= candidateCount,\r\n            \"Candidate selection is invalid.\"\r\n        );\r\n        uint256 id = returnCount(_voterId);\r\n        require(\r\n            voters[id].accountAddress == msg.sender,\r\n            \"Please vote with registered Account Address.\"\r\n        );\r\n        // require(voters[id].authorized, \"You are not authorize to vote.\");\r\n        require(!voters[id].voted, \"You have already Voted.\");\r\n        candidates[_candidateId].noOfVotes++;\r\n        voters[id].voted = true;\r\n        emit voterVoted(_voterId, _candidateId);\r\n    }\r\n\r\n    function returnCount(uint256 _inputVoterId) private returns (uint256) {\r\n        for (uint256 i = 1; i <= voterCount; i++) {\r\n            uint256 idVoter = voters[i].voterId;\r\n            if (\r\n                keccak256(abi.encodePacked(idVoter)) ==\r\n                keccak256(abi.encodePacked(_inputVoterId))\r\n            ) {\r\n                return i;\r\n                break;\r\n            }\r\n        }\r\n        return 0;\r\n    }\r\n\r\n    function checkIfVoterIdExist(uint256 _inputVoterId) private returns (bool) {\r\n        for (uint256 i = 1; i <= voterCount; i++) {\r\n            uint256 idVoter = voters[i].voterId;\r\n            if (\r\n                keccak256(abi.encodePacked(idVoter)) ==\r\n                keccak256(abi.encodePacked(_inputVoterId))\r\n            ) {\r\n                return false;\r\n                break;\r\n            }\r\n        }\r\n        return true;\r\n    }\r\n\r\n    function checkIfAddressExist(address _inputAccountAddress)\r\n        private\r\n        returns (bool)\r\n    {\r\n        for (uint256 i = 1; i <= voterCount; i++) {\r\n            address addressAccount = voters[i].accountAddress;\r\n            if (\r\n                keccak256(abi.encodePacked(addressAccount)) ==\r\n                keccak256(abi.encodePacked(_inputAccountAddress))\r\n            ) {\r\n                return false;\r\n                break;\r\n            }\r\n        }\r\n        return true;\r\n    }\r\n\r\n    function checkIfPartyExist(string memory _inputParty)\r\n        private\r\n        returns (bool)\r\n    {\r\n        for (uint256 i = 1; i <= candidateCount; i++) {\r\n            string memory partyName = candidates[i].party;\r\n            if (\r\n                keccak256(abi.encodePacked(partyName)) ==\r\n                keccak256(abi.encodePacked(_inputParty))\r\n            ) {\r\n                return false;\r\n                break;\r\n            }\r\n        }\r\n        return true;\r\n    }\r\n\r\n    event voterCreated(string name, uint256 voterId, address accountAddress);\r\n    event candidateCreated(string name, string party);\r\n    event voterVoted(uint256 voterId, uint256 candidateId);\r\n}\r\n",
  "sourcePath": "C:/Users/harshad/Desktop/Decentralized-Voting-System-using-Blockchain-Technology/contracts/Election.sol",
  "compiler": {
    "name": "solc",
    "version": "0.5.0+commit.1d4f565a.Emscripten.clang"
  },
  "schemaVersion": "3.0.1",
  "updatedAt": "2022-03-07T18:12:12.236Z",
  "devdoc": {
    "methods": {}
  },
  "userdoc": {
    "methods": {}
  }
}